{
  "transactions": [
    {
      "hash": "0x7e7f87c96e23f0d1117ec4da62bf462be497107d69dcb40bbae3be0c0c19598f",
      "transactionType": "CALL",
      "contractName": null,
      "contractAddress": "0x5fbdb2315678afecb367f032d93f642f64180aa3",
      "function": "mint(address,uint256)",
      "arguments": [
        "0xe7f1725E7734CE288F8367e1Bb143E90bb3F0512",
        "1000000000000000000000"
      ],
      "transaction": {
        "from": "0xf39fd6e51aad88f6f4ce6ab8827279cfffb92266",
        "to": "0x5fbdb2315678afecb367f032d93f642f64180aa3",
        "gas": "0x114f7",
        "value": "0x0",
        "input": "0x40c10f19000000000000000000000000e7f1725e7734ce288f8367e1bb143e90bb3f051200000000000000000000000000000000000000000000003635c9adc5dea00000",
        "nonce": "0x2",
        "chainId": "0x539"
      },
      "additionalContracts": [],
      "isFixedGasLimit": false
    }
  ],
  "receipts": [
    {
      "status": "0x1",
      "cumulativeGasUsed": "0xc885",
      "logs": [
        {
          "address": "0x5fbdb2315678afecb367f032d93f642f64180aa3",
          "topics": [
            "0xddf252ad1be2c89b69c2b068fc378daa952ba7f163c4a11628f55a4df523b3ef",
            "0x0000000000000000000000000000000000000000000000000000000000000000",
            "0x000000000000000000000000e7f1725e7734ce288f8367e1bb143e90bb3f0512"
          ],
          "data": "0x00000000000000000000000000000000000000000000003635c9adc5dea00000",
          "blockHash": "0xad339bfb950b65203262a21ab781f86372cfc8b93d4eae21da9520392ce1862b",
          "blockNumber": "0x22",
          "blockTimestamp": "0x6696c763",
          "transactionHash": "0x7e7f87c96e23f0d1117ec4da62bf462be497107d69dcb40bbae3be0c0c19598f",
          "transactionIndex": "0x0",
          "logIndex": "0x0",
          "removed": false
        }
      ],
      "logsBloom": "0x00000000000000000400000000000000000000000000000000000000000000000000000000000000000000000000000000000000000000000000000000000000000000000000000000000008000000000000000000000000000000000000000000000040020000000000000000000800000000000000000000000014000000000000000000000000000000000000000000000000000000000000000200000000000000000000000000000002000000000000000000000000000000000000000000000042000000000000000000000000000000000000000000000000000020000000000000000000000000000000000000000000000000000000000000000000",
      "type": "0x2",
      "transactionHash": "0x7e7f87c96e23f0d1117ec4da62bf462be497107d69dcb40bbae3be0c0c19598f",
      "transactionIndex": "0x0",
      "blockHash": "0xad339bfb950b65203262a21ab781f86372cfc8b93d4eae21da9520392ce1862b",
      "blockNumber": "0x22",
      "gasUsed": "0xc885",
      "effectiveGasPrice": "0xbcb42e",
      "blobGasPrice": "0x1",
      "from": "0xf39fd6e51aad88f6f4ce6ab8827279cfffb92266",
      "to": "0x5fbdb2315678afecb367f032d93f642f64180aa3",
      "contractAddress": null,
      "root": "0x7489d665bf7e1d9802ba7cacc7116302e9fb46ff8e047ef0f17931328d96a07d"
    }
  ],
  "libraries": [],
  "pending": [],
  "returns": {},
  "timestamp": 1721157475,
  "chain": 1337,
  "commit": "3c22125"
}